{
  "contractName": "BookStore",
  "abi": [
    {
      "inputs": [],
      "stateMutability": "nonpayable",
      "type": "constructor"
    },
    {
      "anonymous": false,
      "inputs": [
        {
          "indexed": false,
          "internalType": "uint256",
          "name": "bookId",
          "type": "uint256"
        },
        {
          "indexed": false,
          "internalType": "string",
          "name": "title",
          "type": "string"
        },
        {
          "indexed": false,
          "internalType": "address",
          "name": "seller",
          "type": "address"
        }
      ],
      "name": "BookAdded",
      "type": "event"
    },
    {
      "anonymous": false,
      "inputs": [
        {
          "indexed": false,
          "internalType": "uint256",
          "name": "bookId",
          "type": "uint256"
        },
        {
          "indexed": false,
          "internalType": "address",
          "name": "buyer",
          "type": "address"
        }
      ],
      "name": "BookPurchased",
      "type": "event"
    },
    {
      "inputs": [],
      "name": "bookCount",
      "outputs": [
        {
          "internalType": "uint256",
          "name": "",
          "type": "uint256"
        }
      ],
      "stateMutability": "view",
      "type": "function"
    },
    {
      "inputs": [
        {
          "internalType": "uint256",
          "name": "",
          "type": "uint256"
        }
      ],
      "name": "books",
      "outputs": [
        {
          "internalType": "uint256",
          "name": "id",
          "type": "uint256"
        },
        {
          "internalType": "string",
          "name": "title",
          "type": "string"
        },
        {
          "internalType": "string",
          "name": "pdfHash",
          "type": "string"
        },
        {
          "internalType": "string",
          "name": "imageHash",
          "type": "string"
        },
        {
          "internalType": "uint256",
          "name": "price",
          "type": "uint256"
        },
        {
          "internalType": "address payable",
          "name": "author",
          "type": "address"
        }
      ],
      "stateMutability": "view",
      "type": "function"
    },
    {
      "inputs": [],
      "name": "owner",
      "outputs": [
        {
          "internalType": "address",
          "name": "",
          "type": "address"
        }
      ],
      "stateMutability": "view",
      "type": "function"
    },
    {
      "inputs": [
        {
          "internalType": "address",
          "name": "",
          "type": "address"
        },
        {
          "internalType": "uint256",
          "name": "",
          "type": "uint256"
        }
      ],
      "name": "purchases",
      "outputs": [
        {
          "internalType": "uint256",
          "name": "",
          "type": "uint256"
        }
      ],
      "stateMutability": "view",
      "type": "function"
    },
    {
      "inputs": [
        {
          "internalType": "address",
          "name": "",
          "type": "address"
        }
      ],
      "name": "royalties",
      "outputs": [
        {
          "internalType": "uint256",
          "name": "",
          "type": "uint256"
        }
      ],
      "stateMutability": "view",
      "type": "function"
    },
    {
      "inputs": [
        {
          "internalType": "string",
          "name": "_title",
          "type": "string"
        },
        {
          "internalType": "string",
          "name": "_pdfHash",
          "type": "string"
        },
        {
          "internalType": "string",
          "name": "_imageHash",
          "type": "string"
        },
        {
          "internalType": "uint256",
          "name": "_price",
          "type": "uint256"
        },
        {
          "internalType": "address payable",
          "name": "_author",
          "type": "address"
        }
      ],
      "name": "addBook",
      "outputs": [],
      "stateMutability": "nonpayable",
      "type": "function"
    },
    {
      "inputs": [
        {
          "internalType": "uint256",
          "name": "_bookId",
          "type": "uint256"
        }
      ],
      "name": "buyBook",
      "outputs": [],
      "stateMutability": "payable",
      "type": "function"
    },
    {
      "inputs": [],
      "name": "getBooks",
      "outputs": [
        {
          "components": [
            {
              "internalType": "uint256",
              "name": "id",
              "type": "uint256"
            },
            {
              "internalType": "string",
              "name": "title",
              "type": "string"
            },
            {
              "internalType": "string",
              "name": "pdfHash",
              "type": "string"
            },
            {
              "internalType": "string",
              "name": "imageHash",
              "type": "string"
            },
            {
              "internalType": "uint256",
              "name": "price",
              "type": "uint256"
            },
            {
              "internalType": "address payable",
              "name": "author",
              "type": "address"
            }
          ],
          "internalType": "struct BookStore.Book[]",
          "name": "",
          "type": "tuple[]"
        }
      ],
      "stateMutability": "view",
      "type": "function"
    },
    {
      "inputs": [
        {
          "internalType": "address",
          "name": "_user",
          "type": "address"
        }
      ],
      "name": "getPurchases",
      "outputs": [
        {
          "internalType": "uint256[]",
          "name": "",
          "type": "uint256[]"
        }
      ],
      "stateMutability": "view",
      "type": "function"
    },
    {
      "inputs": [
        {
          "internalType": "address",
          "name": "_author",
          "type": "address"
        }
      ],
      "name": "getRoyalties",
      "outputs": [
        {
          "internalType": "uint256",
          "name": "",
          "type": "uint256"
        }
      ],
      "stateMutability": "view",
      "type": "function"
    }
  ],
  "bytecode": "0x6080604052600060015534801561001557600080fd5b50336000806101000a81548173ffffffffffffffffffffffffffffffffffffffff021916908373ffffffffffffffffffffffffffffffffffffffff1602179055506118a7806100656000396000f3fe6080604052600436106100915760003560e01c80637fd656a6116100595780637fd656a6146101ab5780638da5cb5b146101d45780639f349789146101ff5780639fa6b4a01461022a578063b905ad781461026757610091565b806314556a561461009657806352d3f849146100d357806368744046146101105780636ee265661461015257806370cd5a801461016e575b600080fd5b3480156100a257600080fd5b506100bd60048036038101906100b89190610fd6565b610292565b6040516100ca9190611435565b60405180910390f35b3480156100df57600080fd5b506100fa60048036038101906100f59190610fff565b6102db565b6040516101079190611435565b60405180910390f35b34801561011c57600080fd5b50610137600480360381019061013291906110fa565b61030c565b604051610149969594939291906114b7565b60405180910390f35b61016c600480360381019061016791906110fa565b610500565b005b34801561017a57600080fd5b5061019560048036038101906101909190610fd6565b6108d0565b6040516101a291906113f3565b60405180910390f35b3480156101b757600080fd5b506101d260048036038101906101cd919061103b565b610967565b005b3480156101e057600080fd5b506101e9610ad2565b6040516101f691906113b6565b60405180910390f35b34801561020b57600080fd5b50610214610af6565b60405161022191906113d1565b60405180910390f35b34801561023657600080fd5b50610251600480360381019061024c9190610fd6565b610e22565b60405161025e9190611435565b60405180910390f35b34801561027357600080fd5b5061027c610e3a565b6040516102899190611435565b60405180910390f35b6000600460008373ffffffffffffffffffffffffffffffffffffffff1673ffffffffffffffffffffffffffffffffffffffff168152602001908152602001600020549050919050565b600360205281600052604060002081815481106102f757600080fd5b90600052602060002001600091509150505481565b600260205280600052604060002060009150905080600001549080600101805461033590611713565b80601f016020809104026020016040519081016040528092919081815260200182805461036190611713565b80156103ae5780601f10610383576101008083540402835291602001916103ae565b820191906000526020600020905b81548152906001019060200180831161039157829003601f168201915b5050505050908060020180546103c390611713565b80601f01602080910402602001604051908101604052809291908181526020018280546103ef90611713565b801561043c5780601f106104115761010080835404028352916020019161043c565b820191906000526020600020905b81548152906001019060200180831161041f57829003601f168201915b50505050509080600301805461045190611713565b80601f016020809104026020016040519081016040528092919081815260200182805461047d90611713565b80156104ca5780601f1061049f576101008083540402835291602001916104ca565b820191906000526020600020905b8154815290600101906020018083116104ad57829003601f168201915b5050505050908060040154908060050160009054906101000a900473ffffffffffffffffffffffffffffffffffffffff16905086565b6000600260008381526020019081526020016000206040518060c00160405290816000820154815260200160018201805461053a90611713565b80601f016020809104026020016040519081016040528092919081815260200182805461056690611713565b80156105b35780601f10610588576101008083540402835291602001916105b3565b820191906000526020600020905b81548152906001019060200180831161059657829003601f168201915b505050505081526020016002820180546105cc90611713565b80601f01602080910402602001604051908101604052809291908181526020018280546105f890611713565b80156106455780601f1061061a57610100808354040283529160200191610645565b820191906000526020600020905b81548152906001019060200180831161062857829003601f168201915b5050505050815260200160038201805461065e90611713565b80601f016020809104026020016040519081016040528092919081815260200182805461068a90611713565b80156106d75780601f106106ac576101008083540402835291602001916106d7565b820191906000526020600020905b8154815290600101906020018083116106ba57829003601f168201915b50505050508152602001600482015481526020016005820160009054906101000a900473ffffffffffffffffffffffffffffffffffffffff1673ffffffffffffffffffffffffffffffffffffffff1673ffffffffffffffffffffffffffffffffffffffff1681525050905080608001513414610788576040517f08c379a000000000000000000000000000000000000000000000000000000000815260040161077f90611415565b60405180910390fd5b8060a0015173ffffffffffffffffffffffffffffffffffffffff166108fc349081150290604051600060405180830381858888f193505050501580156107d2573d6000803e3d6000fd5b5034600460008360a0015173ffffffffffffffffffffffffffffffffffffffff1673ffffffffffffffffffffffffffffffffffffffff1681526020019081526020016000206000828254610826919061162d565b92505081905550600360003373ffffffffffffffffffffffffffffffffffffffff1673ffffffffffffffffffffffffffffffffffffffff1681526020019081526020016000208290806001815401808255809150506001900390600052602060002001600090919091909150557f419fc6819b8320f8731290b326a756bfd06fc875daf29721fe059dedd1937ef682336040516108c4929190611450565b60405180910390a15050565b6060600360008373ffffffffffffffffffffffffffffffffffffffff1673ffffffffffffffffffffffffffffffffffffffff16815260200190815260200160002080548060200260200160405190810160405280929190818152602001828054801561095b57602002820191906000526020600020905b815481526020019060010190808311610947575b50505050509050919050565b6040518060c0016040528060015481526020018681526020018581526020018481526020018381526020018273ffffffffffffffffffffffffffffffffffffffff168152506002600060015481526020019081526020016000206000820151816000015560208201518160010190805190602001906109e7929190610e40565b506040820151816002019080519060200190610a04929190610e40565b506060820151816003019080519060200190610a21929190610e40565b506080820151816004015560a08201518160050160006101000a81548173ffffffffffffffffffffffffffffffffffffffff021916908373ffffffffffffffffffffffffffffffffffffffff1602179055509050507f66f3670875460d6670d31036541894343660cd421e54ec7c971959e092766b836001548633604051610aab93929190611479565b60405180910390a160016000815480929190610ac690611745565b91905055505050505050565b60008054906101000a900473ffffffffffffffffffffffffffffffffffffffff1681565b6060600060015467ffffffffffffffff811115610b3c577f4e487b7100000000000000000000000000000000000000000000000000000000600052604160045260246000fd5b604051908082528060200260200182016040528015610b7557816020015b610b62610ec6565b815260200190600190039081610b5a5790505b50905060005b600154811015610e1a57600260008281526020019081526020016000206040518060c001604052908160008201548152602001600182018054610bbd90611713565b80601f0160208091040260200160405190810160405280929190818152602001828054610be990611713565b8015610c365780601f10610c0b57610100808354040283529160200191610c36565b820191906000526020600020905b815481529060010190602001808311610c1957829003601f168201915b50505050508152602001600282018054610c4f90611713565b80601f0160208091040260200160405190810160405280929190818152602001828054610c7b90611713565b8015610cc85780601f10610c9d57610100808354040283529160200191610cc8565b820191906000526020600020905b815481529060010190602001808311610cab57829003601f168201915b50505050508152602001600382018054610ce190611713565b80601f0160208091040260200160405190810160405280929190818152602001828054610d0d90611713565b8015610d5a5780601f10610d2f57610100808354040283529160200191610d5a565b820191906000526020600020905b815481529060010190602001808311610d3d57829003601f168201915b50505050508152602001600482015481526020016005820160009054906101000a900473ffffffffffffffffffffffffffffffffffffffff1673ffffffffffffffffffffffffffffffffffffffff1673ffffffffffffffffffffffffffffffffffffffff1681525050828281518110610dfc577f4e487b7100000000000000000000000000000000000000000000000000000000600052603260045260246000fd5b60200260200101819052508080610e1290611745565b915050610b7b565b508091505090565b60046020528060005260406000206000915090505481565b60015481565b828054610e4c90611713565b90600052602060002090601f016020900481019282610e6e5760008555610eb5565b82601f10610e8757805160ff1916838001178555610eb5565b82800160010185558215610eb5579182015b82811115610eb4578251825591602001919060010190610e99565b5b509050610ec29190610f12565b5090565b6040518060c001604052806000815260200160608152602001606081526020016060815260200160008152602001600073ffffffffffffffffffffffffffffffffffffffff1681525090565b5b80821115610f2b576000816000905550600101610f13565b5090565b6000610f42610f3d8461155e565b61152d565b905082815260208101848484011115610f5a57600080fd5b610f658482856116d1565b509392505050565b600081359050610f7c8161182c565b92915050565b600081359050610f9181611843565b92915050565b600082601f830112610fa857600080fd5b8135610fb8848260208601610f2f565b91505092915050565b600081359050610fd08161185a565b92915050565b600060208284031215610fe857600080fd5b6000610ff684828501610f6d565b91505092915050565b6000806040838503121561101257600080fd5b600061102085828601610f6d565b925050602061103185828601610fc1565b9150509250929050565b600080600080600060a0868803121561105357600080fd5b600086013567ffffffffffffffff81111561106d57600080fd5b61107988828901610f97565b955050602086013567ffffffffffffffff81111561109657600080fd5b6110a288828901610f97565b945050604086013567ffffffffffffffff8111156110bf57600080fd5b6110cb88828901610f97565b93505060606110dc88828901610fc1565b92505060806110ed88828901610f82565b9150509295509295909350565b60006020828403121561110c57600080fd5b600061111a84828501610fc1565b91505092915050565b600061112f8383611301565b905092915050565b60006111438383611398565b60208301905092915050565b61115881611695565b82525050565b61116781611695565b82525050565b61117681611683565b82525050565b6000611187826115ae565b61119181856115e9565b9350836020820285016111a38561158e565b8060005b858110156111df57848403895281516111c08582611123565b94506111cb836115cf565b925060208a019950506001810190506111a7565b50829750879550505050505092915050565b60006111fc826115b9565b61120681856115fa565b93506112118361159e565b8060005b838110156112425781516112298882611137565b9750611234836115dc565b925050600181019050611215565b5085935050505092915050565b600061125a826115c4565b611264818561160b565b93506112748185602086016116e0565b61127d8161181b565b840191505092915050565b6000611293826115c4565b61129d818561161c565b93506112ad8185602086016116e0565b6112b68161181b565b840191505092915050565b60006112ce60158361161c565b91507f496e636f72726563742076616c75652073656e742e00000000000000000000006000830152602082019050919050565b600060c0830160008301516113196000860182611398565b5060208301518482036020860152611331828261124f565b9150506040830151848203604086015261134b828261124f565b91505060608301518482036060860152611365828261124f565b915050608083015161137a6080860182611398565b5060a083015161138d60a086018261114f565b508091505092915050565b6113a1816116c7565b82525050565b6113b0816116c7565b82525050565b60006020820190506113cb600083018461116d565b92915050565b600060208201905081810360008301526113eb818461117c565b905092915050565b6000602082019050818103600083015261140d81846111f1565b905092915050565b6000602082019050818103600083015261142e816112c1565b9050919050565b600060208201905061144a60008301846113a7565b92915050565b600060408201905061146560008301856113a7565b611472602083018461116d565b9392505050565b600060608201905061148e60008301866113a7565b81810360208301526114a08185611288565b90506114af604083018461116d565b949350505050565b600060c0820190506114cc60008301896113a7565b81810360208301526114de8188611288565b905081810360408301526114f28187611288565b905081810360608301526115068186611288565b905061151560808301856113a7565b61152260a083018461115e565b979650505050505050565b6000604051905081810181811067ffffffffffffffff82111715611554576115536117ec565b5b8060405250919050565b600067ffffffffffffffff821115611579576115786117ec565b5b601f19601f8301169050602081019050919050565b6000819050602082019050919050565b6000819050602082019050919050565b600081519050919050565b600081519050919050565b600081519050919050565b6000602082019050919050565b6000602082019050919050565b600082825260208201905092915050565b600082825260208201905092915050565b600082825260208201905092915050565b600082825260208201905092915050565b6000611638826116c7565b9150611643836116c7565b9250827fffffffffffffffffffffffffffffffffffffffffffffffffffffffffffffffff038211156116785761167761178e565b5b828201905092915050565b600061168e826116a7565b9050919050565b60006116a0826116a7565b9050919050565b600073ffffffffffffffffffffffffffffffffffffffff82169050919050565b6000819050919050565b82818337600083830152505050565b60005b838110156116fe5780820151818401526020810190506116e3565b8381111561170d576000848401525b50505050565b6000600282049050600182168061172b57607f821691505b6020821081141561173f5761173e6117bd565b5b50919050565b6000611750826116c7565b91507fffffffffffffffffffffffffffffffffffffffffffffffffffffffffffffffff8214156117835761178261178e565b5b600182019050919050565b7f4e487b7100000000000000000000000000000000000000000000000000000000600052601160045260246000fd5b7f4e487b7100000000000000000000000000000000000000000000000000000000600052602260045260246000fd5b7f4e487b7100000000000000000000000000000000000000000000000000000000600052604160045260246000fd5b6000601f19601f8301169050919050565b61183581611683565b811461184057600080fd5b50565b61184c81611695565b811461185757600080fd5b50565b611863816116c7565b811461186e57600080fd5b5056fea26469706673582212206ef0243f1510e0beb63b141751a216ff1771c98bbdca327ee9ed14cdb2d0419d64736f6c63430008000033",
  "immutableReferences": {},
  "source": "// SPDX-License-Identifier: MIT\r\npragma solidity ^0.8.0;\r\n\r\ncontract BookStore {\r\n    address public owner;\r\n\r\n    struct Book {\r\n        uint256 id;\r\n        string title;\r\n        string pdfHash;\r\n        string imageHash;\r\n        uint256 price;\r\n        address payable author;\r\n    }\r\n\r\n    uint256 public bookCount = 0;\r\n    mapping(uint256 => Book) public books;\r\n\r\n    mapping(address => uint256[]) public purchases;\r\n    mapping(address => uint256) public royalties;\r\n\r\n    event BookAdded(uint256 bookId, string title, address seller);\r\n    event BookPurchased(uint256 bookId, address buyer);\r\n\r\n    modifier onlyOwner() {\r\n        require(msg.sender == owner, \"Only owner can perform this action.\");\r\n        _;\r\n    }\r\n\r\n    constructor() {\r\n        owner = msg.sender;\r\n    }\r\n\r\n    function addBook(\r\n        string memory _title,\r\n        string memory _pdfHash,\r\n        string memory _imageHash,\r\n        uint256 _price,\r\n        address payable _author\r\n    ) public {\r\n        books[bookCount] = Book(\r\n            bookCount,\r\n            _title,\r\n            _pdfHash,\r\n            _imageHash,\r\n            _price,\r\n            _author\r\n        );\r\n        emit BookAdded(bookCount, _title, msg.sender);\r\n        bookCount++;\r\n    }\r\n\r\n    function buyBook(uint256 _bookId) public payable {\r\n        Book memory book = books[_bookId];\r\n        require(msg.value == book.price, \"Incorrect value sent.\");\r\n\r\n        // Transfer funds to author\r\n        book.author.transfer(msg.value);\r\n        royalties[book.author] += msg.value;\r\n\r\n        // Record the purchase\r\n        purchases[msg.sender].push(_bookId);\r\n\r\n        emit BookPurchased(_bookId, msg.sender);\r\n    }\r\n\r\n    function getBooks() public view returns (Book[] memory) {\r\n        Book[] memory allBooks = new Book[](bookCount);\r\n        for (uint256 i = 0; i < bookCount; i++) {\r\n            allBooks[i] = books[i];\r\n        }\r\n        return allBooks;\r\n    }\r\n\r\n    function getPurchases(address _user) public view returns (uint256[] memory) {\r\n        return purchases[_user];\r\n    }\r\n\r\n    function getRoyalties(address _author) public view returns (uint256) {\r\n        return royalties[_author];\r\n    }\r\n}",
  "sourcePath": "C:\\Users\\Administrator\\Downloads\\blockchain-bookstore\\contracts\\BookStore.sol",
  "compiler": {
    "name": "solc",
    "version": "0.8.0+commit.c7dfd78e.Emscripten.clang"
  },
  "schemaVersion": "3.4.16",
  "updatedAt": "2024-11-08T17:55:33.445Z",
  "devdoc": {
    "kind": "dev",
    "methods": {},
    "version": 1
  },
  "userdoc": {
    "kind": "user",
    "methods": {},
    "version": 1
  }
}