{
  "contractName": "BookStore",
  "abi": [
    {
      "anonymous": false,
      "inputs": [
        {
          "indexed": true,
          "internalType": "uint256",
          "name": "bookId",
          "type": "uint256"
        },
        {
          "indexed": false,
          "internalType": "string",
          "name": "title",
          "type": "string"
        },
        {
          "indexed": true,
          "internalType": "address",
          "name": "author",
          "type": "address"
        },
        {
          "indexed": true,
          "internalType": "address",
          "name": "seller",
          "type": "address"
        }
      ],
      "name": "BookAdded",
      "type": "event"
    },
    {
      "anonymous": false,
      "inputs": [
        {
          "indexed": true,
          "internalType": "uint256",
          "name": "bookId",
          "type": "uint256"
        },
        {
          "indexed": true,
          "internalType": "address",
          "name": "buyer",
          "type": "address"
        },
        {
          "indexed": false,
          "internalType": "uint256",
          "name": "price",
          "type": "uint256"
        }
      ],
      "name": "BookPurchased",
      "type": "event"
    },
    {
      "anonymous": false,
      "inputs": [
        {
          "indexed": true,
          "internalType": "uint256",
          "name": "bookId",
          "type": "uint256"
        }
      ],
      "name": "BookRemoved",
      "type": "event"
    },
    {
      "anonymous": false,
      "inputs": [
        {
          "indexed": true,
          "internalType": "uint256",
          "name": "bookId",
          "type": "uint256"
        },
        {
          "indexed": false,
          "internalType": "string",
          "name": "title",
          "type": "string"
        },
        {
          "indexed": false,
          "internalType": "uint256",
          "name": "price",
          "type": "uint256"
        }
      ],
      "name": "BookUpdated",
      "type": "event"
    },
    {
      "anonymous": false,
      "inputs": [
        {
          "indexed": true,
          "internalType": "address",
          "name": "previousOwner",
          "type": "address"
        },
        {
          "indexed": true,
          "internalType": "address",
          "name": "newOwner",
          "type": "address"
        }
      ],
      "name": "OwnershipTransferStarted",
      "type": "event"
    },
    {
      "anonymous": false,
      "inputs": [
        {
          "indexed": true,
          "internalType": "address",
          "name": "previousOwner",
          "type": "address"
        },
        {
          "indexed": true,
          "internalType": "address",
          "name": "newOwner",
          "type": "address"
        }
      ],
      "name": "OwnershipTransferred",
      "type": "event"
    },
    {
      "anonymous": false,
      "inputs": [
        {
          "indexed": false,
          "internalType": "uint256",
          "name": "newFeePercentage",
          "type": "uint256"
        }
      ],
      "name": "PlatformFeeUpdated",
      "type": "event"
    },
    {
      "anonymous": false,
      "inputs": [
        {
          "indexed": true,
          "internalType": "uint256",
          "name": "bookId",
          "type": "uint256"
        },
        {
          "indexed": true,
          "internalType": "address",
          "name": "author",
          "type": "address"
        },
        {
          "indexed": false,
          "internalType": "uint256",
          "name": "amount",
          "type": "uint256"
        }
      ],
      "name": "RoyaltyPaid",
      "type": "event"
    },
    {
      "inputs": [],
      "name": "acceptOwnership",
      "outputs": [],
      "stateMutability": "nonpayable",
      "type": "function"
    },
    {
      "inputs": [
        {
          "internalType": "address",
          "name": "",
          "type": "address"
        },
        {
          "internalType": "uint256",
          "name": "",
          "type": "uint256"
        }
      ],
      "name": "authorBooks",
      "outputs": [
        {
          "internalType": "uint256",
          "name": "",
          "type": "uint256"
        }
      ],
      "stateMutability": "view",
      "type": "function"
    },
    {
      "inputs": [
        {
          "internalType": "address",
          "name": "",
          "type": "address"
        },
        {
          "internalType": "uint256",
          "name": "",
          "type": "uint256"
        }
      ],
      "name": "authorRoyalties",
      "outputs": [
        {
          "internalType": "uint256",
          "name": "bookId",
          "type": "uint256"
        },
        {
          "internalType": "address",
          "name": "author",
          "type": "address"
        },
        {
          "internalType": "uint256",
          "name": "amount",
          "type": "uint256"
        },
        {
          "internalType": "uint256",
          "name": "paymentDate",
          "type": "uint256"
        }
      ],
      "stateMutability": "view",
      "type": "function"
    },
    {
      "inputs": [
        {
          "internalType": "uint256",
          "name": "",
          "type": "uint256"
        },
        {
          "internalType": "uint256",
          "name": "",
          "type": "uint256"
        }
      ],
      "name": "bookPurchases",
      "outputs": [
        {
          "internalType": "uint256",
          "name": "bookId",
          "type": "uint256"
        },
        {
          "internalType": "address",
          "name": "buyer",
          "type": "address"
        },
        {
          "internalType": "uint256",
          "name": "price",
          "type": "uint256"
        },
        {
          "internalType": "uint256",
          "name": "purchaseDate",
          "type": "uint256"
        }
      ],
      "stateMutability": "view",
      "type": "function"
    },
    {
      "inputs": [
        {
          "internalType": "uint256",
          "name": "",
          "type": "uint256"
        }
      ],
      "name": "books",
      "outputs": [
        {
          "internalType": "uint256",
          "name": "id",
          "type": "uint256"
        },
        {
          "internalType": "string",
          "name": "title",
          "type": "string"
        },
        {
          "internalType": "uint256",
          "name": "price",
          "type": "uint256"
        },
        {
          "internalType": "address",
          "name": "author",
          "type": "address"
        },
        {
          "internalType": "address",
          "name": "seller",
          "type": "address"
        },
        {
          "internalType": "string",
          "name": "pdfHash",
          "type": "string"
        },
        {
          "internalType": "uint256",
          "name": "royaltyPercentage",
          "type": "uint256"
        },
        {
          "internalType": "bool",
          "name": "isActive",
          "type": "bool"
        },
        {
          "internalType": "uint256",
          "name": "totalSales",
          "type": "uint256"
        },
        {
          "internalType": "uint256",
          "name": "createdAt",
          "type": "uint256"
        }
      ],
      "stateMutability": "view",
      "type": "function"
    },
    {
      "inputs": [],
      "name": "isOwner",
      "outputs": [
        {
          "internalType": "bool",
          "name": "",
          "type": "bool"
        }
      ],
      "stateMutability": "view",
      "type": "function"
    },
    {
      "inputs": [],
      "name": "owner",
      "outputs": [
        {
          "internalType": "address",
          "name": "",
          "type": "address"
        }
      ],
      "stateMutability": "view",
      "type": "function"
    },
    {
      "inputs": [],
      "name": "pendingOwner",
      "outputs": [
        {
          "internalType": "address",
          "name": "",
          "type": "address"
        }
      ],
      "stateMutability": "view",
      "type": "function"
    },
    {
      "inputs": [],
      "name": "platformFeePercentage",
      "outputs": [
        {
          "internalType": "uint256",
          "name": "",
          "type": "uint256"
        }
      ],
      "stateMutability": "view",
      "type": "function"
    },
    {
      "inputs": [],
      "name": "renounceOwnership",
      "outputs": [],
      "stateMutability": "nonpayable",
      "type": "function"
    },
    {
      "inputs": [
        {
          "internalType": "address",
          "name": "",
          "type": "address"
        },
        {
          "internalType": "uint256",
          "name": "",
          "type": "uint256"
        }
      ],
      "name": "sellerBooks",
      "outputs": [
        {
          "internalType": "uint256",
          "name": "",
          "type": "uint256"
        }
      ],
      "stateMutability": "view",
      "type": "function"
    },
    {
      "inputs": [
        {
          "internalType": "address",
          "name": "newOwner",
          "type": "address"
        }
      ],
      "name": "transferOwnership",
      "outputs": [],
      "stateMutability": "nonpayable",
      "type": "function"
    },
    {
      "inputs": [
        {
          "internalType": "address",
          "name": "",
          "type": "address"
        },
        {
          "internalType": "uint256",
          "name": "",
          "type": "uint256"
        }
      ],
      "name": "userPurchases",
      "outputs": [
        {
          "internalType": "bool",
          "name": "",
          "type": "bool"
        }
      ],
      "stateMutability": "view",
      "type": "function"
    },
    {
      "inputs": [
        {
          "internalType": "string",
          "name": "title",
          "type": "string"
        },
        {
          "internalType": "uint256",
          "name": "price",
          "type": "uint256"
        },
        {
          "internalType": "string",
          "name": "pdfHash",
          "type": "string"
        },
        {
          "internalType": "uint256",
          "name": "royaltyPercentage",
          "type": "uint256"
        }
      ],
      "name": "addBook",
      "outputs": [
        {
          "internalType": "uint256",
          "name": "",
          "type": "uint256"
        }
      ],
      "stateMutability": "nonpayable",
      "type": "function"
    },
    {
      "inputs": [
        {
          "internalType": "uint256",
          "name": "bookId",
          "type": "uint256"
        },
        {
          "internalType": "string",
          "name": "title",
          "type": "string"
        },
        {
          "internalType": "uint256",
          "name": "price",
          "type": "uint256"
        },
        {
          "internalType": "string",
          "name": "pdfHash",
          "type": "string"
        },
        {
          "internalType": "uint256",
          "name": "royaltyPercentage",
          "type": "uint256"
        }
      ],
      "name": "updateBook",
      "outputs": [],
      "stateMutability": "nonpayable",
      "type": "function"
    },
    {
      "inputs": [
        {
          "internalType": "uint256",
          "name": "bookId",
          "type": "uint256"
        }
      ],
      "name": "purchaseBook",
      "outputs": [],
      "stateMutability": "payable",
      "type": "function"
    },
    {
      "inputs": [
        {
          "internalType": "uint256",
          "name": "bookId",
          "type": "uint256"
        }
      ],
      "name": "removeBook",
      "outputs": [],
      "stateMutability": "nonpayable",
      "type": "function"
    },
    {
      "inputs": [
        {
          "internalType": "uint256",
          "name": "newFeePercentage",
          "type": "uint256"
        }
      ],
      "name": "setPlatformFee",
      "outputs": [],
      "stateMutability": "nonpayable",
      "type": "function"
    },
    {
      "inputs": [
        {
          "internalType": "uint256",
          "name": "bookId",
          "type": "uint256"
        }
      ],
      "name": "getBookDetails",
      "outputs": [
        {
          "internalType": "string",
          "name": "title",
          "type": "string"
        },
        {
          "internalType": "uint256",
          "name": "price",
          "type": "uint256"
        },
        {
          "internalType": "address",
          "name": "author",
          "type": "address"
        },
        {
          "internalType": "address",
          "name": "seller",
          "type": "address"
        },
        {
          "internalType": "string",
          "name": "pdfHash",
          "type": "string"
        },
        {
          "internalType": "uint256",
          "name": "royaltyPercentage",
          "type": "uint256"
        },
        {
          "internalType": "bool",
          "name": "isActive",
          "type": "bool"
        },
        {
          "internalType": "uint256",
          "name": "totalSales",
          "type": "uint256"
        }
      ],
      "stateMutability": "view",
      "type": "function"
    },
    {
      "inputs": [
        {
          "internalType": "address",
          "name": "user",
          "type": "address"
        }
      ],
      "name": "getUserPurchases",
      "outputs": [
        {
          "internalType": "uint256[]",
          "name": "",
          "type": "uint256[]"
        }
      ],
      "stateMutability": "view",
      "type": "function"
    },
    {
      "inputs": [
        {
          "internalType": "address",
          "name": "author",
          "type": "address"
        }
      ],
      "name": "getAuthorRoyalties",
      "outputs": [
        {
          "components": [
            {
              "internalType": "uint256",
              "name": "bookId",
              "type": "uint256"
            },
            {
              "internalType": "address",
              "name": "author",
              "type": "address"
            },
            {
              "internalType": "uint256",
              "name": "amount",
              "type": "uint256"
            },
            {
              "internalType": "uint256",
              "name": "paymentDate",
              "type": "uint256"
            }
          ],
          "internalType": "struct BookStore.Royalty[]",
          "name": "",
          "type": "tuple[]"
        }
      ],
      "stateMutability": "view",
      "type": "function"
    },
    {
      "inputs": [
        {
          "internalType": "uint256",
          "name": "bookId",
          "type": "uint256"
        }
      ],
      "name": "getBookPurchases",
      "outputs": [
        {
          "components": [
            {
              "internalType": "uint256",
              "name": "bookId",
              "type": "uint256"
            },
            {
              "internalType": "address",
              "name": "buyer",
              "type": "address"
            },
            {
              "internalType": "uint256",
              "name": "price",
              "type": "uint256"
            },
            {
              "internalType": "uint256",
              "name": "purchaseDate",
              "type": "uint256"
            }
          ],
          "internalType": "struct BookStore.Purchase[]",
          "name": "",
          "type": "tuple[]"
        }
      ],
      "stateMutability": "view",
      "type": "function"
    },
    {
      "inputs": [
        {
          "internalType": "address",
          "name": "author",
          "type": "address"
        }
      ],
      "name": "getAuthorBooks",
      "outputs": [
        {
          "internalType": "uint256[]",
          "name": "",
          "type": "uint256[]"
        }
      ],
      "stateMutability": "view",
      "type": "function"
    },
    {
      "inputs": [
        {
          "internalType": "address",
          "name": "seller",
          "type": "address"
        }
      ],
      "name": "getSellerBooks",
      "outputs": [
        {
          "internalType": "uint256[]",
          "name": "",
          "type": "uint256[]"
        }
      ],
      "stateMutability": "view",
      "type": "function"
    },
    {
      "inputs": [],
      "name": "emergencyWithdraw",
      "outputs": [],
      "stateMutability": "nonpayable",
      "type": "function"
    },
    {
      "inputs": [
        {
          "internalType": "uint256",
          "name": "bookId",
          "type": "uint256"
        }
      ],
      "name": "emergencyPause",
      "outputs": [],
      "stateMutability": "nonpayable",
      "type": "function"
    }
  ],
  "bytecode": "0x60806040526001600255600560035534801561001a57600080fd5b50600080546001600160a01b0319163390811782556040519091907f8be0079c531659141344cd1fd0a4f28419497f9722a3daafe3b4186f6b6457e0908290a3612090806100696000396000f3fe6080604052600436106101815760003560e01c80638f32d59b116100d1578063c6e5d8f61161008a578063cf2c033411610064578063cf2c0334146104c5578063db2e21bc14610500578063e30c397814610515578063f2fde38b1461053357600080fd5b8063c6e5d8f61461046f578063ccf6558f1461048f578063cdd78cfc146104af57600080fd5b80638f32d59b14610396578063a72877a6146103c2578063ad3fbe30146103e2578063b652346214610402578063bec0d79914610422578063bfb072f51461044257600080fd5b8063687440461161013e57806374ff48181161011857806374ff4818146102fb57806379ba50971461032f578063891231e3146103445780638da5cb5b1461036457600080fd5b806368744046146102685780636adee2e21461029e578063715018a6146102e657600080fd5b806312e8e2c3146101865780631c555f47146101a857806324428fdf146101bb5780632c073f44146101db57806334ff7f301461020e5780634d75ae2d1461023b575b600080fd5b34801561019257600080fd5b506101a66101a136600461196e565b610553565b005b6101a66101b636600461196e565b610601565b3480156101c757600080fd5b506101a66101d6366004611a2a565b6109c3565b3480156101e757600080fd5b506101fb6101f6366004611aa9565b610be1565b6040519081526020015b60405180910390f35b34801561021a57600080fd5b5061022e610229366004611b3a565b610de2565b6040516102059190611b5c565b34801561024757600080fd5b5061025b61025636600461196e565b610e4e565b6040516102059190611ba0565b34801561027457600080fd5b5061028861028336600461196e565b610eeb565b6040516102059a99989796959493929190611c4f565b3480156102aa57600080fd5b506102be6102b9366004611cc7565b61105e565b604080519485526001600160a01b039093166020850152918301526060820152608001610205565b3480156102f257600080fd5b506101a66110ad565b34801561030757600080fd5b5061031b61031636600461196e565b61112d565b604051610205989796959493929190611ce9565b34801561033b57600080fd5b506101a66112c3565b34801561035057600080fd5b506101fb61035f366004611d50565b611392565b34801561037057600080fd5b506000546001600160a01b03165b6040516001600160a01b039091168152602001610205565b3480156103a257600080fd5b506000546001600160a01b031633145b6040519015158152602001610205565b3480156103ce57600080fd5b5061022e6103dd366004611b3a565b6113c3565b3480156103ee57600080fd5b506101a66103fd36600461196e565b61142d565b34801561040e57600080fd5b506102be61041d366004611d50565b6114ce565b34801561042e57600080fd5b506101a661043d36600461196e565b6114ea565b34801561044e57600080fd5b5061046261045d366004611b3a565b6115e3565b6040516102059190611d7a565b34801561047b57600080fd5b5061022e61048a366004611b3a565b611675565b34801561049b57600080fd5b506101fb6104aa366004611d50565b61179d565b3480156104bb57600080fd5b506101fb60035481565b3480156104d157600080fd5b506103b26104e0366004611d50565b600760209081526000928352604080842090915290825290205460ff1681565b34801561050c57600080fd5b506101a66117b9565b34801561052157600080fd5b506001546001600160a01b031661037e565b34801561053f57600080fd5b506101a661054e366004611b3a565b611820565b6000546001600160a01b031633146105865760405162461bcd60e51b815260040161057d90611de3565b60405180910390fd5b60148111156105c65760405162461bcd60e51b815260206004820152600c60248201526b08ccaca40e8dede40d0d2ced60a31b604482015260640161057d565b60038190556040518181527f45610d581145924dd7090a5017e5f2b1d6f42213bb2e95707ff86846bbfcb1ca9060200160405180910390a150565b600081815260046020526040902060070154819060ff166106345760405162461bcd60e51b815260040161057d90611e18565b6000828152600460209081526040808320338452600783528184208685529092529091205460ff161561069d5760405162461bcd60e51b8152602060048201526011602482015270105b1c9958591e481c1d5c98da185cd959607a1b604482015260640161057d565b806002015434146106f05760405162461bcd60e51b815260206004820152601860248201527f496e636f7272656374207061796d656e7420616d6f756e740000000000000000604482015260640161057d565b60006064600354346107029190611e5b565b61070c9190611e78565b9050600060648360060154346107229190611e5b565b61072c9190611e78565b905060008161073b8434611e9a565b6107459190611e9a565b90506107596000546001600160a01b031690565b6001600160a01b03166108fc849081150290604051600060405180830381858888f19350505050158015610791573d6000803e3d6000fd5b5081156108955760038401546040516001600160a01b039091169083156108fc029084906000818181858888f193505050501580156107d4573d6000803e3d6000fd5b50600384810180546001600160a01b03908116600081815260096020908152604080832081516080810183528e81528084019586528083018b815242606083019081528354600180820186559488529686902092516004909702909201958655955191850180546001600160a01b0319169288169290921790915593516002840155925191909501559154915185815291169188917ff670029fc6f5302baba881b4ae845d1453acdf752b4c19ed81fe0fa6a686409b910160405180910390a35b60048401546040516001600160a01b039091169082156108fc029083906000818181858888f193505050501580156108d1573d6000803e3d6000fd5b503360008181526007602090815260408083208a845282528083208054600160ff199091168117909155600880845282852083516080810185528d8152808601978852349481019485524260608201908152825480860184559288529587209051600490920201908155955191860180546001600160a01b0319166001600160a01b039093169290921790915590516002850155905160039093019290925590850180549161097f83611ead565b9091555050604051348152339087907f439c08b00222293c6073f3ee383214541a4a21aca7dbb0a45963f86fa8e589f79060200160405180910390a3505050505050565b600085815260046020526040902060070154859060ff166109f65760405162461bcd60e51b815260040161057d90611e18565b60008681526004602052604090206003015486906001600160a01b0316331480610a3a5750600081815260046020819052604090912001546001600160a01b031633145b610a775760405162461bcd60e51b815260206004820152600e60248201526d139bdd08185d5d1a1bdc9a5e995960921b604482015260640161057d565b6000865111610ac05760405162461bcd60e51b81526020600482015260156024820152745469746c652063616e6e6f7420626520656d70747960581b604482015260640161057d565b60008511610b105760405162461bcd60e51b815260206004820152601c60248201527f5072696365206d7573742062652067726561746572207468616e203000000000604482015260640161057d565b6064831115610b615760405162461bcd60e51b815260206004820152601a60248201527f496e76616c696420726f79616c74792070657263656e74616765000000000000604482015260640161057d565b600087815260046020526040902060018101610b7d8882611f4f565b506002810186905560058101610b938682611f4f565b50838160060181905550877fe48706ea2cd06b14e1ba9f932601591e50d99e399874ccdb14c28917d2c5d6328888604051610bcf92919061200f565b60405180910390a25050505050505050565b600080855111610c2b5760405162461bcd60e51b81526020600482015260156024820152745469746c652063616e6e6f7420626520656d70747960581b604482015260640161057d565b60008411610c7b5760405162461bcd60e51b815260206004820152601c60248201527f5072696365206d7573742062652067726561746572207468616e203000000000604482015260640161057d565b6064821115610ccc5760405162461bcd60e51b815260206004820152601a60248201527f496e76616c696420726f79616c74792070657263656e74616765000000000000604482015260640161057d565b6002805460009182610cdd83611ead565b90915550600081815260046020526040902081815590915060018101610d038882611f4f565b5060028101869055600381018054336001600160a01b03199182168117909255600483018054909116909117905560058101610d3f8682611f4f565b50600680820185905560078201805460ff19166001908117909155426009840155336000818152600560209081526040808320805480870182559084528284200188905583835294815284822080549485018155825290209091018490559051819084907fdde5986d093ced9e54bbdae0a98b2b24bc1b954094692a662961d5a597f51a9c90610dd0908c90612031565b60405180910390a45095945050505050565b6001600160a01b038116600090815260066020908152604091829020805483518184028101840190945280845260609392830182828015610e4257602002820191906000526020600020905b815481526020019060010190808311610e2e575b50505050509050919050565b606060086000838152602001908152602001600020805480602002602001604051908101604052809291908181526020016000905b82821015610ee05760008481526020908190206040805160808101825260048602909201805483526001808201546001600160a01b0316848601526002820154928401929092526003015460608301529083529092019101610e83565b505050509050919050565b60046020526000908152604090208054600182018054919291610f0d90611ec6565b80601f0160208091040260200160405190810160405280929190818152602001828054610f3990611ec6565b8015610f865780601f10610f5b57610100808354040283529160200191610f86565b820191906000526020600020905b815481529060010190602001808311610f6957829003601f168201915b505050600284015460038501546004860154600587018054969793966001600160a01b039384169650919092169350610fbe90611ec6565b80601f0160208091040260200160405190810160405280929190818152602001828054610fea90611ec6565b80156110375780601f1061100c57610100808354040283529160200191611037565b820191906000526020600020905b81548152906001019060200180831161101a57829003601f168201915b505050506006830154600784015460088501546009909501549394919360ff90911692508a565b6008602052816000526040600020818154811061107a57600080fd5b600091825260209091206004909102018054600182015460028301546003909301549194506001600160a01b0316925084565b6000546001600160a01b031633146110d75760405162461bcd60e51b815260040161057d90611de3565b600080546040516001600160a01b03909116907f8be0079c531659141344cd1fd0a4f28419497f9722a3daafe3b4186f6b6457e0908390a3600080546001600160a01b0319908116909155600180549091169055565b60008181526004602081905260408220600281015460038201549282015460068301546007840154600885015460018601805460609998899889988c988a988998899894979693956001600160a01b0390811695931693600589019360ff9092169190889061119b90611ec6565b80601f01602080910402602001604051908101604052809291908181526020018280546111c790611ec6565b80156112145780601f106111e957610100808354040283529160200191611214565b820191906000526020600020905b8154815290600101906020018083116111f757829003601f168201915b5050505050975083805461122790611ec6565b80601f016020809104026020016040519081016040528092919081815260200182805461125390611ec6565b80156112a05780601f10611275576101008083540402835291602001916112a0565b820191906000526020600020905b81548152906001019060200180831161128357829003601f168201915b505050505093509850985098509850985098509850985050919395975091939597565b6001546001600160a01b0316331461132e5760405162461bcd60e51b815260206004820152602860248201527f4f776e61626c653a2063616c6c6572206973206e6f74207468652070656e646960448201526737339037bbb732b960c11b606482015260840161057d565b600154600080546040516001600160a01b0393841693909116917f8be0079c531659141344cd1fd0a4f28419497f9722a3daafe3b4186f6b6457e091a360018054600080546001600160a01b03199081166001600160a01b03841617909155169055565b600560205281600052604060002081815481106113ae57600080fd5b90600052602060002001600091509150505481565b6001600160a01b038116600090815260056020908152604091829020805483518184028101840190945280845260609392830182828015610e425760200282019190600052602060002090815481526020019060010190808311610e2e5750505050509050919050565b6000546001600160a01b031633146114575760405162461bcd60e51b815260040161057d90611de3565b600081815260046020526040902060070154819060ff1661148a5760405162461bcd60e51b815260040161057d90611e18565b600082815260046020526040808220600701805460ff191690555183917f3c5ce13264433bcf97e5d53c97af4fc33800e8c9dd927f965b116d0018d7cddf91a25050565b6009602052816000526040600020818154811061107a57600080fd5b600081815260046020526040902060070154819060ff1661151d5760405162461bcd60e51b815260040161057d90611e18565b60008281526004602052604090206003015482906001600160a01b03163314806115615750600081815260046020819052604090912001546001600160a01b031633145b61159e5760405162461bcd60e51b815260206004820152600e60248201526d139bdd08185d5d1a1bdc9a5e995960921b604482015260640161057d565b600083815260046020526040808220600701805460ff191690555184917f3c5ce13264433bcf97e5d53c97af4fc33800e8c9dd927f965b116d0018d7cddf91a2505050565b6001600160a01b0381166000908152600960209081526040808320805482518185028101850190935280835260609492939192909184018215610ee05760008481526020908190206040805160808101825260048602909201805483526001808201546001600160a01b0316848601526002820154928401929092526003015460608301529083529092019101610e83565b6060600060015b6002548110156116d2576001600160a01b038416600090815260076020908152604080832084845290915290205460ff16156116c057816116bc81611ead565b9250505b806116ca81611ead565b91505061167c565b5060008167ffffffffffffffff8111156116ee576116ee611987565b604051908082528060200260200182016040528015611717578160200160208202803683370190505b509050600060015b600254811015611793576001600160a01b038616600090815260076020908152604080832084845290915290205460ff1615611781578083838151811061176857611768612044565b60209081029190910101528161177d81611ead565b9250505b8061178b81611ead565b91505061171f565b5090949350505050565b600660205281600052604060002081815481106113ae57600080fd5b6000546001600160a01b031633146117e35760405162461bcd60e51b815260040161057d90611de3565b600080546040516001600160a01b03909116914780156108fc02929091818181858888f1935050505015801561181d573d6000803e3d6000fd5b50565b6000546001600160a01b0316331461184a5760405162461bcd60e51b815260040161057d90611de3565b6001600160a01b0381166118af5760405162461bcd60e51b815260206004820152602660248201527f4f776e61626c653a206e6577206f776e657220697320746865207a65726f206160448201526564647265737360d01b606482015260840161057d565b6000546001600160a01b039081169082160361191d5760405162461bcd60e51b815260206004820152602760248201527f4f776e61626c653a206e6577206f776e6572206973207468652063757272656e6044820152663a1037bbb732b960c91b606482015260840161057d565b600180546001600160a01b0319166001600160a01b0383811691821790925560008054604051929316917f38d16b8cac22d99fc7c124b9cd0de2d3fa1faef420bfe791d8c362d765e227009190a350565b60006020828403121561198057600080fd5b5035919050565b634e487b7160e01b600052604160045260246000fd5b600082601f8301126119ae57600080fd5b813567ffffffffffffffff808211156119c9576119c9611987565b604051601f8301601f19908116603f011681019082821181831017156119f1576119f1611987565b81604052838152866020858801011115611a0a57600080fd5b836020870160208301376000602085830101528094505050505092915050565b600080600080600060a08688031215611a4257600080fd5b85359450602086013567ffffffffffffffff80821115611a6157600080fd5b611a6d89838a0161199d565b9550604088013594506060880135915080821115611a8a57600080fd5b50611a978882890161199d565b95989497509295608001359392505050565b60008060008060808587031215611abf57600080fd5b843567ffffffffffffffff80821115611ad757600080fd5b611ae38883890161199d565b9550602087013594506040870135915080821115611b0057600080fd5b50611b0d8782880161199d565b949793965093946060013593505050565b80356001600160a01b0381168114611b3557600080fd5b919050565b600060208284031215611b4c57600080fd5b611b5582611b1e565b9392505050565b6020808252825182820181905260009190848201906040850190845b81811015611b9457835183529284019291840191600101611b78565b50909695505050505050565b6020808252825182820181905260009190848201906040850190845b81811015611b9457611bf6838551805182526020808201516001600160a01b03169083015260408082015190830152606090810151910152565b9284019260809290920191600101611bbc565b6000815180845260005b81811015611c2f57602081850181015186830182015201611c13565b506000602082860101526020601f19601f83011685010191505092915050565b60006101408c8352806020840152611c698184018d611c09565b604084018c90526001600160a01b038b811660608601528a16608085015283810360a08501529050611c9b8189611c09565b60c0840197909752505092151560e0840152610100830191909152610120909101529695505050505050565b60008060408385031215611cda57600080fd5b50508035926020909101359150565b6000610100808352611cfd8184018c611c09565b602084018b90526001600160a01b038a811660408601528916606085015283810360808501529050611d2f8188611c09565b60a0840196909652505091151560c083015260e09091015295945050505050565b60008060408385031215611d6357600080fd5b611d6c83611b1e565b946020939093013593505050565b6020808252825182820181905260009190848201906040850190845b81811015611b9457611dd0838551805182526020808201516001600160a01b03169083015260408082015190830152606090810151910152565b9284019260809290920191600101611d96565b6020808252818101527f4f776e61626c653a2063616c6c6572206973206e6f7420746865206f776e6572604082015260600190565b602080825260139082015272109bdbdac8191bd95cc81b9bdd08195e1a5cdd606a1b604082015260600190565b634e487b7160e01b600052601160045260246000fd5b8082028115828204841417611e7257611e72611e45565b92915050565b600082611e9557634e487b7160e01b600052601260045260246000fd5b500490565b81810381811115611e7257611e72611e45565b600060018201611ebf57611ebf611e45565b5060010190565b600181811c90821680611eda57607f821691505b602082108103611efa57634e487b7160e01b600052602260045260246000fd5b50919050565b601f821115611f4a57600081815260208120601f850160051c81016020861015611f275750805b601f850160051c820191505b81811015611f4657828155600101611f33565b5050505b505050565b815167ffffffffffffffff811115611f6957611f69611987565b611f7d81611f778454611ec6565b84611f00565b602080601f831160018114611fb25760008415611f9a5750858301515b600019600386901b1c1916600185901b178555611f46565b600085815260208120601f198616915b82811015611fe157888601518255948401946001909101908401611fc2565b5085821015611fff5787850151600019600388901b60f8161c191681555b5050505050600190811b01905550565b6040815260006120226040830185611c09565b90508260208301529392505050565b602081526000611b556020830184611c09565b634e487b7160e01b600052603260045260246000fdfea264697066735822122067ae5aa3747c49ebf3b5dcd8d69d0384dcbbb2343cbc5d3e781a7c72876a21c064736f6c63430008130033",
  "immutableReferences": {},
  "source": "// SPDX-License-Identifier: MIT\r\npragma solidity ^0.8.0;\r\n\r\nimport \"./Ownable.sol\";\r\n\r\ncontract BookStore is Ownable {\r\n    struct Book {\r\n        uint256 id;\r\n        string title;\r\n        uint256 price;\r\n        address author;\r\n        address seller;\r\n        string pdfHash;\r\n        uint256 royaltyPercentage;\r\n        bool isActive;\r\n        uint256 totalSales;\r\n        uint256 createdAt;\r\n    }\r\n\r\n    struct Purchase {\r\n        uint256 bookId;\r\n        address buyer;\r\n        uint256 price;\r\n        uint256 purchaseDate;\r\n    }\r\n\r\n    struct Royalty {\r\n        uint256 bookId;\r\n        address author;\r\n        uint256 amount;\r\n        uint256 paymentDate;\r\n    }\r\n\r\n    uint256 private _nextBookId = 1;\r\n    uint256 public platformFeePercentage = 5; // 5% platform fee\r\n\r\n    mapping(uint256 => Book) public books;\r\n    mapping(address => uint256[]) public authorBooks;\r\n    mapping(address => uint256[]) public sellerBooks;\r\n    mapping(address => mapping(uint256 => bool)) public userPurchases;\r\n    mapping(uint256 => Purchase[]) public bookPurchases;\r\n    mapping(address => Royalty[]) public authorRoyalties;\r\n\r\n    event BookAdded(uint256 indexed bookId, string title, address indexed author, address indexed seller);\r\n    event BookUpdated(uint256 indexed bookId, string title, uint256 price);\r\n    event BookPurchased(uint256 indexed bookId, address indexed buyer, uint256 price);\r\n    event RoyaltyPaid(uint256 indexed bookId, address indexed author, uint256 amount);\r\n    event BookRemoved(uint256 indexed bookId);\r\n    event PlatformFeeUpdated(uint256 newFeePercentage);\r\n\r\n    modifier onlyBookOwner(uint256 bookId) {\r\n        require(\r\n            books[bookId].author == msg.sender || books[bookId].seller == msg.sender,\r\n            \"Not authorized\"\r\n        );\r\n        _;\r\n    }\r\n\r\n    modifier bookExists(uint256 bookId) {\r\n        require(books[bookId].isActive, \"Book does not exist\");\r\n        _;\r\n    }\r\n\r\n    function addBook(\r\n        string memory title,\r\n        uint256 price,\r\n        string memory pdfHash,\r\n        uint256 royaltyPercentage\r\n    ) public returns (uint256) {\r\n        require(bytes(title).length > 0, \"Title cannot be empty\");\r\n        require(price > 0, \"Price must be greater than 0\");\r\n        require(royaltyPercentage <= 100, \"Invalid royalty percentage\");\r\n\r\n        uint256 bookId = _nextBookId++;\r\n        \r\n        Book storage newBook = books[bookId];\r\n        newBook.id = bookId;\r\n        newBook.title = title;\r\n        newBook.price = price;\r\n        newBook.author = msg.sender;\r\n        newBook.seller = msg.sender;\r\n        newBook.pdfHash = pdfHash;\r\n        newBook.royaltyPercentage = royaltyPercentage;\r\n        newBook.isActive = true;\r\n        newBook.createdAt = block.timestamp;\r\n\r\n        authorBooks[msg.sender].push(bookId);\r\n        sellerBooks[msg.sender].push(bookId);\r\n\r\n        emit BookAdded(bookId, title, msg.sender, msg.sender);\r\n        return bookId;\r\n    }\r\n\r\n    function updateBook(\r\n        uint256 bookId,\r\n        string memory title,\r\n        uint256 price,\r\n        string memory pdfHash,\r\n        uint256 royaltyPercentage\r\n    ) public bookExists(bookId) onlyBookOwner(bookId) {\r\n        require(bytes(title).length > 0, \"Title cannot be empty\");\r\n        require(price > 0, \"Price must be greater than 0\");\r\n        require(royaltyPercentage <= 100, \"Invalid royalty percentage\");\r\n\r\n        Book storage book = books[bookId];\r\n        book.title = title;\r\n        book.price = price;\r\n        book.pdfHash = pdfHash;\r\n        book.royaltyPercentage = royaltyPercentage;\r\n\r\n        emit BookUpdated(bookId, title, price);\r\n    }\r\n\r\n    function purchaseBook(uint256 bookId) public payable bookExists(bookId) {\r\n        Book storage book = books[bookId];\r\n        require(!userPurchases[msg.sender][bookId], \"Already purchased\");\r\n        require(msg.value == book.price, \"Incorrect payment amount\");\r\n\r\n        uint256 platformFee = (msg.value * platformFeePercentage) / 100;\r\n        uint256 royaltyAmount = (msg.value * book.royaltyPercentage) / 100;\r\n        uint256 sellerAmount = msg.value - platformFee - royaltyAmount;\r\n\r\n        // Transfer platform fee\r\n        payable(owner()).transfer(platformFee);\r\n\r\n        // Transfer royalty to author\r\n        if (royaltyAmount > 0) {\r\n            payable(book.author).transfer(royaltyAmount);\r\n            authorRoyalties[book.author].push(Royalty({\r\n                bookId: bookId,\r\n                author: book.author,\r\n                amount: royaltyAmount,\r\n                paymentDate: block.timestamp\r\n            }));\r\n            emit RoyaltyPaid(bookId, book.author, royaltyAmount);\r\n        }\r\n\r\n        // Transfer remaining amount to seller\r\n        payable(book.seller).transfer(sellerAmount);\r\n\r\n        // Record purchase\r\n        userPurchases[msg.sender][bookId] = true;\r\n        bookPurchases[bookId].push(Purchase({\r\n            bookId: bookId,\r\n            buyer: msg.sender,\r\n            price: msg.value,\r\n            purchaseDate: block.timestamp\r\n        }));\r\n\r\n        book.totalSales++;\r\n\r\n        emit BookPurchased(bookId, msg.sender, msg.value);\r\n    }\r\n\r\n    function removeBook(uint256 bookId) public bookExists(bookId) onlyBookOwner(bookId) {\r\n        books[bookId].isActive = false;\r\n        emit BookRemoved(bookId);\r\n    }\r\n\r\n    function setPlatformFee(uint256 newFeePercentage) public onlyOwner {\r\n        require(newFeePercentage <= 20, \"Fee too high\"); // Max 20%\r\n        platformFeePercentage = newFeePercentage;\r\n        emit PlatformFeeUpdated(newFeePercentage);\r\n    }\r\n\r\n    function getBookDetails(uint256 bookId) public view \r\n        returns (\r\n            string memory title,\r\n            uint256 price,\r\n            address author,\r\n            address seller,\r\n            string memory pdfHash,\r\n            uint256 royaltyPercentage,\r\n            bool isActive,\r\n            uint256 totalSales\r\n        ) \r\n    {\r\n        Book storage book = books[bookId];\r\n        return (\r\n            book.title,\r\n            book.price,\r\n            book.author,\r\n            book.seller,\r\n            book.pdfHash,\r\n            book.royaltyPercentage,\r\n            book.isActive,\r\n            book.totalSales\r\n        );\r\n    }\r\n\r\n    function getUserPurchases(address user) public view returns (uint256[] memory) {\r\n        uint256 purchaseCount = 0;\r\n        for (uint256 i = 1; i < _nextBookId; i++) {\r\n            if (userPurchases[user][i]) {\r\n                purchaseCount++;\r\n            }\r\n        }\r\n\r\n        uint256[] memory userBooks = new uint256[](purchaseCount);\r\n        uint256 index = 0;\r\n        for (uint256 i = 1; i < _nextBookId; i++) {\r\n            if (userPurchases[user][i]) {\r\n                userBooks[index] = i;\r\n                index++;\r\n            }\r\n        }\r\n        return userBooks;\r\n    }\r\n\r\n    function getAuthorRoyalties(address author) public view returns (Royalty[] memory) {\r\n        return authorRoyalties[author];\r\n    }\r\n\r\n    function getBookPurchases(uint256 bookId) public view returns (Purchase[] memory) {\r\n        return bookPurchases[bookId];\r\n    }\r\n\r\n    function getAuthorBooks(address author) public view returns (uint256[] memory) {\r\n        return authorBooks[author];\r\n    }\r\n\r\n    function getSellerBooks(address seller) public view returns (uint256[] memory) {\r\n        return sellerBooks[seller];\r\n    }\r\n\r\n    // Emergency functions\r\n    function emergencyWithdraw() public onlyOwner {\r\n        payable(owner()).transfer(address(this).balance);\r\n    }\r\n\r\n    function emergencyPause(uint256 bookId) public onlyOwner bookExists(bookId) {\r\n        books[bookId].isActive = false;\r\n        emit BookRemoved(bookId);\r\n    }\r\n}",
  "sourcePath": "C:\\Users\\Administrator\\Downloads\\blockchain-bookstore\\contracts\\BookStore.sol",
  "compiler": {
    "name": "solc",
    "version": "0.8.19+commit.7dd6d404.Emscripten.clang"
  },
  "schemaVersion": "3.4.16",
  "updatedAt": "2024-11-10T09:33:29.280Z",
  "devdoc": {
    "kind": "dev",
    "methods": {},
    "version": 1
  },
  "userdoc": {
    "kind": "user",
    "methods": {},
    "version": 1
  }
}